:020000040800F2
:10000000B80600208101000809180008DB1000086C
:1000100000000000000000000000000000000000E0
:100020000000000000000000000000008D0100083A
:1000300000000000000000008F0100080D180008FB
:100040009301000893010008930100089301000840
:100050009301000893010008930100089301000830
:100060009301000893010008930100089301000820
:100070009301000893010008930100089301000810
:1000800093010008AD180008E1180008791800086D
:1000900093010008930100089301000893010008F0
:1000A00093010008930100089301000893010008E0
:1000B00093010008930100089301000893010008D0
:1000C00000F002F800F04CF812A030C808382418EC
:1000D0002D18AC4201D100F043F80FCCA246AB463C
:1000E0000CA730CF2D1B083F3F197C427F1E544484
:1000F0002D090426F441641EAC4201D300F030F80F
:100100000126334200D0FB1A3343984754465D46DC
:10011000DFE70000E4290000042A0000103A02D3BF
:1001200078C878C1FAD8520701D330C830C101D598
:1001300004680C6070470000704700000023002432
:1001400000250026103A01D378C1FBD8520700D30E
:1001500030C100D50B6070471FB51FBD10B510BD75
:1001600000F03CFF1146FFF7F7FF01F029FD00F01A
:1001700054FF03B4FFF7F2FF03BC00F0A7FF000039
:100180000748804707480047FEE7FEE7FEE7FEE72F
:10019000FEE7FEE704480549054A064B70470000A4
:1001A00075180008C1000008B8000020B80600203B
:1001B000B8020020B8020020002203098B422CD391
:1001C000030A8B4211D300239C464EE003460B43A7
:1001D0003CD4002243088B4231D303098B421CD309
:1001E000030A8B4201D394463FE0C3098B4201D3FB
:1001F000CB01C01A524183098B4201D38B01C01A33
:10020000524143098B4201D34B01C01A52410309A9
:100210008B4201D30B01C01A5241C3088B4201D358
:10022000CB00C01A524183088B4201D38B00C01A05
:10023000524143088B4201D34B00C01A5241411A2C
:1002400000D201465241104670475DE0CA0F00D00F
:100250004942031000D3404253409C460022030908
:100260008B422DD3030A8B4212D38901FC2212BA8E
:10027000030A8B420CD3890192118B4208D3890166
:1002800092118B4204D389013AD0921100E089097E
:10029000C3098B4201D3CB01C01A524183098B425F
:1002A00001D38B01C01A524143098B4201D34B0148
:1002B000C01A524103098B4201D30B01C01A5241AB
:1002C000C3088B4201D3CB00C01A524183088B4232
:1002D00001D38B00C01A5241D9D243088B4201D3BB
:1002E0004B00C01A5241411A00D2014652411046F9
:1002F00063465B1001D34042002B00D54942704752
:1003000063465B1000D3404201B50549002802DC7A
:10031000491C084000E00846C046C04602BD00BF78
:10032000FFFFFF7F7047704770470000F0B50C4635
:10033000871A9C410D46861A9D4103D2C01BA141DC
:10034000D21963410D0D1F0DC94EEC1BAE435CD09D
:100350007F057F0D0026002F51D02D05AC46A94307
:10036000DD020123ED0A1B051D4320231B1B24D4A2
:100370001746E740381871412F46E740CC199D4099
:100380002818314661410C0D27D161449A4013D59C
:100390000023401C594152000ED140084000012268
:1003A0004B005205D34207D305204007C14201D577
:1003B000B04900E0B0493046F0BD6B00002A00D0E3
:1003C00001229A181F23203C1B1B01D5002302E0A9
:1003D000E540281871410C0DD7D0012424050919D6
:1003E000C407CD0740084908E40F28436144002CA6
:1003F000D5D00024401C61419A40D0D1CDE76A0598
:10040000520DD9D1C90FC907D5E79C4D4E00002820
:1004100001D0012400E0002434195F00002A01D03B
:10042000012600E00026BE19954FAC420CD8AE4222
:100430000AD8B44206D001256D05EC42BCD0104666
:100440001946F0BD9942FCD000203946F0BDF0B508
:100450001FB40C460F46811A9F412546861A9D41BE
:1004600006D20125ED076F40401ABC4152187B416E
:10047000210D1E0D8D1BAC467D4D8D437ED0750527
:100480006D0D7CD00D05AE46AC431B031B0B794DA7
:1004900052429D41202366469B1B14D31746F740CA
:1004A000381800260090744160462F460741E41931
:1004B00000989D402818664116D4714671189A40DC
:1004C00025D5012320E093182A466A415200002BCB
:1004D00000D0521C1E23203E9B1B002B61DD3541AA
:1004E000EE1728186641E8D5001876415B1C9A4043
:1004F00000D3401C4B05F3181524E34010D3002B08
:1005000052D071467118D30FC01802D3491C05B0E0
:10051000F0BD0123DB079A42F9D140084000F6E71D
:1005200001225205B21801D1002853D00123CC0A70
:10053000DB029943891E002A08D1020C03D0020C69
:100540000004103902E00246002020390023550B38
:1005500005D112020823550B01D152010D23550C70
:1005600001D112011B1DD50C01D192009B1C150D50
:1005700001D152005B1C2025EE1A01E02CE022E0A4
:100580000546F54015439840CA1AE1076918130556
:10059000C918002ABBDA032040070818C10FC90791
:1005A0000FE071466118B2E7F10740080843711087
:1005B00071444A000CD001235B059A42A7D2C90FAF
:1005C000C9070020A3E74905490D26D1002001E015
:1005D0000028F4D100219AE7284D6600002801D0B8
:1005E000012100E0002171185F00002A01D00126DE
:1005F00000E00026BE19224FA94210D8AE420ED804
:10060000B14208D001256D05E94206D01946A8027D
:10061000414010467BE79C4201D0214677E700200D
:10062000394674E710B50C465C4005D50124E40753
:100630006340FFF70CFF10BDFFF778FE10BD30B42C
:100640000C465C4004D50124E407634030BC6DE6F1
:1006500030BCFCE670B50124E40761400D465D4006
:1006600002D4FFF763FE70BD6340FFF7F0FE70BD7C
:10067000FF0700000000F0FF0000F07F0000E0FF37
:100680000000F87F0346CA02400D10B510430A155A
:1006900004D00124E4072043002A05DB0A4CA21AF7
:1006A00004D4D040FF2A00DD002010BD4A00002BFA
:1006B00001D0012000E00020101801225205D04294
:1006C000F2D8C817C04310BD1E0400001F22030C3F
:1006D00002D10F22000402D0030E03D004E0002058
:1006E000014670470002083A030F01D10001121FB2
:1006F000830F01D18000921E002801DB4000521EB2
:10070000120551184205C012411810467047C10F1A
:10071000C90700D04042012292071143D6E70121C8
:100720008907D3E7F0B58B4C0F09254689B0BD4347
:100730007BD01D092646AE43FAD00E465E402740C8
:10074000F60F3E43254071D024012142FBD0FF2407
:10075000AD19A4042D1B039501252D05DB02DB0A31
:10076000C9022B43C90A29431E010901040F130FB3
:10077000050121431701880B820391432D098C4603
:10078000A90B1E438A039543B30B9A0396433F0973
:10079000BA0B9403A74302962E467E430497B646AF
:1007A0004E19D7190C460196544305977E43371BC3
:1007B0007646BF1B3601B646BE0B36190096764606
:1007C000BC043719009C01D3641C00946400002F02
:1007D00001D001263443029E049F754366467E4342
:1007E0000496760034196E0034190094029C019E20
:1007F0001C196643751BAE46069465464519059C53
:1008000005956C43594375460891691A0191049EF8
:1008100001465143A41B0491611A009C0791E10613
:1008200005D061090122114302E072E06EE0610926
:10083000089D00272C0A2D066918049D7C412A0A70
:100840002D066918019D6241AC0DAD026D18544131
:10085000079A910D920255196141029A64465843D4
:100860005443069B059A5A43121A131B9A0E9B0176
:100870005B187A41010B0005C3185141220A20067A
:1008800044195A419A4200D2491C01204002814237
:1008900003D315230226F64302E014230326F6436E
:1008A0002020C51AA9401746AF40DA400A43204627
:1008B0000399D8400914731819055118039A38433D
:1008C000D2075140AC4009D00122944006D3002207
:1008D000401C5141002C01D1400840001E4A934267
:1008E00012D3012203989206904207DB05204007AD
:1008F00009181A480143C012414004E00320400790
:100900000818C10FC907002009B0F0BD0020F10789
:10091000FAE705180C464C4111486D42A04115D329
:1009200094181A465A410E48644290410ED3012051
:100930004A004005824209D35A00824206D35940F8
:10094000C90F084AC90700201143DDE70020064906
:10095000DAE700000000FF07FE070000FFFFFF7F4F
:100960000000E0FF0000F07F0000F87F10B500F00D
:100970005DFA006810BD10B5044600F057FA046037
:1009800010BD0000F0B5F94D0C091E092C402E4099
:100990002F468BB0A7437DD0B543FCD0002E7AD034
:1009A000002CFCD00D465D40ED0F2543AC1BFF2510
:1009B000AD0464190894C502440DC9022143500DC9
:1009C000DC0204430120C00701430443D202019129
:1009D000200C110C00958C46010423468B430A9190
:1009E00061460904E24D8A430991010A7D4449198F
:1009F0008039097805464D4301266D18F605751BAB
:100A00006943C90C640B891C4C436418B5012C1B49
:100A1000250C2E04B4434C434D43210C691889091D
:100A20000591009DE90701D00121C90704912C46D9
:100A300001996708CD072F434C08059DE10B4D43F5
:100A40002D0C29466646754302950D4645432E46B4
:100A5000029D7D1BB44100950D465D4301942C0C15
:100A60002F040D465543AE462D0C3D43029503948D
:100A70007546049C2D04641B049406D2029C039DBD
:100A8000641C002675410395029401AC70CC009F54
:100A90007D1B01E03EE162E1B4410904009507914C
:100AA00001940599A4086143090C0C464443650B65
:100AB000E7040C4666467443A646640B3C43039524
:100AC00002947446049DE4042C1B049406D2029CF8
:100AD000039D641C002675410395029401AC70CC03
:100AE000009F7D1BB44101940C465C430095650F4B
:100AF000E7000C465443A646640F3C43039502941A
:100B00007446049DE4002C1B049406D2029C039DB1
:100B1000641C002675410395029401AC70CC009FC3
:100B20007D1BB441AE09AF06049DC900AD092F433A
:100B3000049DA406AD060495079D344369180791EA
:100B4000059DE10B4D432D0C2946664675430295E4
:100B50000D4645432E46029D7D1BB44100950D4632
:100B60005D4301942C0C2F040D465543AE462D0CCD
:100B70003D43029503947546049C2D04641B049424
:100B800006D2029C039D641C0026754103950294C5
:100B900001AC70CC009F7D1BB44101948C05069480
:100BA000079C890A611800950791019C0599A40882
:100BB0006143090C0D464543680BEF040D4664463E
:100BC00065436C0B3C43049FED047D1BAC4602D295
:100BD0000025641C6841009E019D371B8541084625
:100BE000584301950C46460FC5005443600F2843F7
:100BF0006546E4002C1B02D20025401C6E41019D7D
:100C00003F1AB5412846BD09800628438446A009FD
:100C1000BF064E020699A40676180743079D0020DA
:100C200068410A99079019430020099B009060468B
:100C3000FF1913434041E20F64003A43A4460446BF
:100C4000D71A8C41A04203D90120009020463A4691
:100C5000C70F941840416246D20F22436446640095
:100C60000494009CBE466400D71AA446044602972A
:100C70008C417746002F01D1A04204D96046401C28
:100C80008446029A2046C40FA64694184041049A0E
:100C90000546D20F224364466400D31A8D41714643
:100CA000002901D1A84202D928461A46641C1043E3
:100CB0000122002800D0164361020020079B8919F9
:100CC00004465C410223002C02DB491813466441B0
:100CD000089DCE0A2D145D194B056705E10A2C0508
:100CE0000D1908993E43C9076940002B08D093406D
:100CF00006D30022761C5141002B01D176087600E4
:100D00001C4A002D43DB154241D0AA433FD0304658
:100D10000BB0F0BD06180D464D41174C7642AC4164
:100D20001AD395181C465C41134A6D42A24113D355
:100D3000012252054C00D4420AD15C00D4420BD0AF
:100D40004B4002D592021143E2E749004908DFE730
:100D50005940C90FC90718E000200849D8E70548DD
:100D600001420DD10342F7D0F2E700000000FF0777
:100D7000802000000000F07F0000E0FF0000F87F0E
:100D8000114859400143C01241400020C0E70123EF
:100D9000089A9B069A4205DC032252078918C90F5C
:100DA000C907B5E7052252078918074A1143D2122D
:100DB0005140ADE770B515461C4602460B46284625
:100DC0002146FFF7DFFD70BDFFFFFF7F70B50546D1
:100DD0004800440D124B0020002C0AD0634008D07C
:100DE0009A4206DA6642B24203DD120540195141C9
:100DF00070BD002C08D0002B09D0C90FC907002AEC
:100E0000F6DB084A114370BDC90FC90770BD2846FB
:100E10000A03104302D00020034970BD284670BD6C
:100E2000FF0700000000F07F0000F87F00487047D7
:100E300030000020F8B5264C4E00069DA6420AD888
:100E4000A64201D1002806D15E00A64203D8A642E0
:100E50000AD1002A08D00D242404254233D0294683
:100E6000002000F0E2F8F8BD0C461C4311D4994272
:100E700007D0C81A02D3EFF30080F8BDEFF300806B
:100E8000F8BD801A02D3EFF30080F8BDEFF30080C5
:100E9000F8BD09242407E5008B4207D0581A02D375
:100EA000EFF3008006E0EFF3008007E0101A03D3B1
:100EB000EFF30080A04303E0EFF30080A04328435A
:100EC00080F30088F8BD009500F0C6F8F8BD00007A
:100ED0000000E0FFF0B53D4B02460C461C400020F0
:100EE000002C63D03A4D8B4366D000296BDB0B0D91
:100EF0001D05A94301252D0529430124FD33E340A8
:100F000001D392184941FF3381339C468B02940DE3
:100F10000121234389074C42920200271B198C10A0
:100F20005D1A04D42D1B02D42B4665004919921872
:100F30005B416408F4D15C1A08D40125ED07EE1773
:100F40005519744102D42A462346491C94185B4122
:100F5000012292071D46E61B8D4106D4B61A854133
:100F600003D42B46550034467F1924195B4152089F
:100F7000802AEFD1234300D0022338460A22D040F2
:100F800001D3012213438A0510436246890A1205E0
:100F90008918002B09D00122D34002D30022401C23
:100FA0005141002B01D140084000F0BD0B03134319
:100FB00007D0C90FC907F0BD0803104303D10029AA
:100FC00001DB1046F0BD00202946F0BD0000F07F97
:100FD0000000F87F00487047300000207546FFF79A
:100FE000F9FFAE46050069465346C008C000854675
:100FF00018B020B5FFF7CEF860BCB6460026002733
:10100000C0C5C0C5C0C5C0C5C0C5C0C5C0C5C0C5B8
:10101000403D490849008D46704710B50446C0461A
:10102000C0462046FFF7A5F810BDC80212D54803F8
:10103000400F002804D0C803C043012188407047F6
:10104000EFF300800001000903210907084380F342
:10105000008870470020704710B500200249029AAE
:1010600000F004F810BD00000000F87F10B50C4639
:101070001107090F092904D00A290AD008290CD11F
:1010800004E011460820FFF7D0FF06E0510606D520
:1010900001E0510601D50120C007214610BDD1064F
:1010A00007D501010909CC084907000E00060443D1
:1010B00009E0410F20024907000A0143200E000603
:1010C0001D22D14101430846E7E7000001491820ED
:1010D000ABBEFEE7260002007047FFE7FEE7000018
:1010E00082B00190019A05480168114301600068CF
:1010F000019908400090009802B070471410024017
:1011000082B00190019A0C480168114301600068A7
:10111000019908400090009802B0704782B0019099
:10112000019A05480168114301600068019908406F
:101130000090009802B070471C10024082B00190ED
:10114000019A05480168114301600068019908404F
:101150000090009802B070471810024008480068DC
:10116000012108407047C04681B0009004490868DA
:1011700001229043009A1043086001B07047C046B6
:101180000020024080B584B00390029100200190BD
:10119000FFE7029800680199C84000284BD0FFE79C
:1011A00002980068019A012191400840009000983F
:1011B00000283CD0FFE702984068012805D0FFE7EF
:1011C0000298406802280DD1FFE703980099029A1F
:1011D000926800F095F80398029A1168D26800F0BE
:1011E0006EF8FFE703980099029A126900F076F80A
:1011F00002984068022813D1FFE70098FF2807D81B
:10120000FFE703980099029A526900F01FF806E080
:1012100003980099029A526900F02BF8FFE7FFE764
:1012200003980099029A526800F037F8FFE7019896
:10123000401C0190ADE7002004B080BD82B0019059
:10124000009100980199886202B0704783B00290C3
:10125000019100920298006A019A524352430F2171
:10126000514388430099514308430299086203B0EF
:10127000704783B00290019100920298406A0199F0
:101280000A0A524352430F21514388430099514364
:1012900008430299486203B0704783B002900191FD
:1012A000009202980068019A5243032151438843F7
:1012B0000099514308430299086003B0704783B016
:1012C00002900191009202984068019A904300991F
:1012D000514308430299486003B0704783B00290BD
:1012E000019100920298C068019A52430321514330
:1012F00088430099514308430299C86003B070477E
:1013000083B002900191009202988068019A524342
:10131000032151438843009951430843029988604F
:1013200003B0704780B582B0019001987D21C9005B
:1013300000F002F802B080BD80B582B0019000914B
:1013400001980099FEF738FF401E054908600549DD
:101350000020086004490520086002B080BDC04636
:1013600014E000E018E000E010E000E01D48006834
:101370000C2108407047C046074908680122120442
:10138000104308607047C0460348006801214904C3
:101390000840400C7047C0463410024081B00090B5
:1013A00010490868F0229043009A1043086001B089
:1013B0007047C04681B000900A49086807221202AF
:1013C0009043009A1043086001B0704781B00090CC
:1013D0000449086803229043009A1043086001B052
:1013E0007047C0460410024081B000900098024946
:1013F000086001B07047C0460000002081B0009036
:101400000099086880229043086001B0704781B05D
:1014100000900099886880229043886001B07047EE
:1014200081B000900099486901221043486101B0E1
:101430007047000080B584B0039002910398006863
:1014400001900398384988420BD0FFE703980121A7
:101450008907884205D0FFE703983449884208D1BC
:10146000FFE7019870218843029949680843019079
:10147000FFE703982C4988421FD0FFE7039801211A
:101480008907884219D0FFE703982849884214D079
:10149000FFE70398AD4988420FD0FFE7039824493E
:1014A00088420AD0FFE703982249884205D0FFE727
:1014B00003982149884209D1FFE7019803210902D5
:1014C00088430299C96808430190FFE7019803998E
:1014D000086003980299896800F030F8039802992F
:1014E000098800F033F803980F4988420FD0FFE7CE
:1014F00003980F4988420AD0FFE703980D498842B4
:1015000005D0FFE703980C49884206D1FFE703980E
:101510000299096900F022F8FFE70398FFF780FFBE
:10152000002004B080BDC046002C014000040040F3
:1015300000400140004401400048014082B0019059
:10154000009100980199C86202B0704782B0019082
:10155000009100980199886202B0704782B00190B2
:10156000009100980199086302B0704782B0019021
:1015700000910198406870218843009908430199BF
:10158000486002B070470000F0B58FB000200690B0
:101590000E900D900C900B900A90099001200590F0
:1015A000C004FFF79DFD05984004FFF799FD0599DC
:1015B0000920C0060890FFF741FE0898022101911A
:1015C000FFF73CFE089804210291FFF737FE0898C8
:1015D00008210391FFF732FE089810210491FFF7CC
:1015E0002DFE089820273946FFF728FE0898402648
:1015F0003146FFF723FE089880252946FFF71EFE97
:1016000005990898CC032146FFF718FE059806991E
:10161000420309920A910D90364809A90791FFF7F4
:10162000B1FD059B069A0799089809930A930B92B6
:101630000C920D92FFF7A6FD059B069A019807995B
:10164000099008980A930B920C920D92FFF79AFD5D
:10165000059B069A02980799099008980A930B929D
:101660000C920D92FFF78EFD059B069A0398079941
:10167000099008980A930B920C920D92FFF782FD45
:10168000059B069A04980799099008980A930B926B
:101690000C920D92FFF776FD059B069A0799089824
:1016A00009970A930B920C920D92FFF76BFD059B25
:1016B000069A0799089809960A930B920C920D9234
:1016C000FFF760FD059B069A0799089809950A930C
:1016D0000B920C920D92FFF755FD059B069A079908
:1016E000089809940A930B920C920D92FFF74AFD09
:1016F0000FB0F0BD0008004880B588B00020019010
:101700000790069005900490039001200002FFF7D7
:1017100005FD01991320009000F052F9009800F0A7
:10172000FBF8019803A9074A0A800490064A05922B
:1017300006905D480290FFF77DFE0298FFF75EFE7F
:1017400008B080BD7FBB0000E70300000020004020
:1017500080B588B000200190079006900590049015
:1017600003901020FFF7DAFC01991120009000F09F
:1017700027F9009800F0D0F8019803A90F220A80F9
:1017800004900948059055480290FFF753FE0298CF
:10179000FFF734FE01990298FFF7E8FE0298FFF781
:1017A00036FE08B080BDC0462F75000080B588B0F9
:1017B000002001900790069005900490039020204F
:1017C000FFF7ACFC01991220009000F0F9F80098A6
:1017D00000F0A2F8019803A92F220A80049009487A
:1017E00005904C480290FFF725FE0298FFF706FE91
:1017F00001990298FFF7BAFE0298FFF708FE08B0B9
:1018000080BDC0460F270000FFE7FEE770470000DD
:1018100080B582B00120FFF7A7FCFFE7FFF79EFC31
:10182000012801D0FFE7F9E7FFF7A6FDFFE7FFF783
:10183000ABFD012801D0FFE7F9E700200190FFF799
:10184000ADFD0198FFF7B6FD0320FFF7BFFDFFE7F1
:10185000FFF78CFD0C2801D0FFE7F9E70448009062
:10186000FFF760FD0098FFF7BFFD02B080BDC046E6
:10187000006CDC027047000080B507480068C007B4
:10188000002808D0FFE700F093FA03490868012216
:1018900090430860FFE780BD1020004002490868BF
:1018A00001221043086070470020004080B50748BF
:1018B0000068C007002808D0FFE700F045F9034999
:1018C0000868012290430860FFE780BD10100040C7
:1018D0000249086801221043086070470010004068
:1018E00080B508480068C00700280AD0FFE700F06C
:1018F0003BF900F0A7F8034908680122904308600B
:10190000FFE780BD1014004002490868012210431F
:10191000086070470014004081B0014668460170BD
:1019200000214056002809D4FFE7684601781F20AF
:1019300001400120884002490860FFE701B070477C
:1019400000E100E070B582B0024601A8027000918B
:1019500000214056002816D4FFE7002401A90857AB
:101960000322D3431840364A805809578C07E50EA6
:10197000FF24AC40A043009CA401E4B2AC4020434F
:10198000194088501AE001A908780F24204008382F
:101990000322D3431840294A8058002549578D0710
:1019A000EE0EFF25B540A843009DAD01EDB2B54058
:1019B00028432140083919408850FFE702B070BD24
:1019C00070B582B0024601A8027000910021405615
:1019D000002816D4FFE7002401A908570322D343A7
:1019E0001840174A805809578C07E50EFF24AC4071
:1019F000A043009CA401E4B2AC40204319408850AD
:101A00001AE001A908780F24204008380322D343A4
:101A100018400A4A8058002549578D07EE0EFF25C9
:101A2000B540A843009DAD01EDB2B540284321402B
:101A3000083919408850FFE702B070BD1CED00E086
:101A400000E400E080B582B001901E480068800488
:101A5000002818D4FFE71C480078C007002812D1DE
:101A6000FFE71A480178491C01700078052809D160
:101A7000FFE71649002008701349012008700198FB
:101A80008047FFE71BE00F4800688004002815D559
:101A9000FFE70D480078C00700280FD0FFE70B488C
:101AA0000178491C01700078052806D1FFE7074935
:101AB0000020087004490870FFE7FFE7FFE702B065
:101AC00080BDC0461008004890000020980000200B
:101AD00080B582B0019001980249086000F0E2F8F8
:101AE00002B080BD9C00002082B0014601A80170B8
:101AF00000780090002808D0FFE7009801280BD05C
:101B0000FFE7009802280ED014E06549086801221A
:101B10009202104308600DE0614908680122D20278
:101B20001043086006E05E49086801221203104372
:101B30000860FFE702B0704759490868072292021F
:101B4000904308607047C04680B500F061F8474890
:101B50000178491C01700078032804DBFFE7434942
:101B600000200870FFE780BDB04800687047C0469D
:101B700081B0694600200870FFE7684600780228B7
:101B80000CDCFFE768460078820059490020885045
:101B9000FFE70098401C69460870EEE733490020D3
:101BA000087034490120087001B070479E493C20FC
:101BB00008609C49002008709C499D480860704757
:101BC00080B584B000200290039001200190FFF7BF
:101BD000B5FA01980007FFF793FA0298C043032172
:101BE000FFF7B0FEFFF714FEFFF7CEFCFFF7B0FDE6
:101BF000FFF7DCFDFFF780FDFFF7D8FFFFF7B8FF29
:101C0000FFF766FEFFF780FEFFF748FEFFE7FEE7FF
:101C100080B582B0FFF790FF144800788100344807
:101C2000415801A801701E490A68FF239A430A60BF
:101C3000007882000E4882580868104308600D48FA
:101C40000078C00700280BD0FFE70848007802287A
:101C500006D0FFE712490868802210430860FFE7BA
:101C600002480078FFF740FF02B080BD99000020D5
:101C700004000020A0000020094908680122D203C6
:101C8000904308604649002008707047044A116874
:101C90000120C30319431160414908707047C046D1
:101CA0001400004880B584B002A902200870FFE744
:101CB000002102A84056002817D4FFE703980A2104
:101CC0000191FEF779FA08460199002302AAD2563B
:101CD0009300074AD0500398FEF76EFA0390FFE78F
:101CE0000298401E02A90870E2E704B080BDC04619
:101CF000A400002010B58AB04B48019000683C2138
:101D00000091FEF759FA009902460198099200687D
:101D1000FEF752FA08910998FEF701FD049005912B
:101D2000012083070D490022104600F019F90290A6
:101D300003910898FEF7F3FC029A039B044604986B
:101D400006940C4605990794FEF7ECFC069A079B4F
:101D5000FEF768FCFEF796FC0AB010BD00002440B8
:101D600080B531493C200860FFF7C4FFFFF7B0FEA3
:101D70002E49034808602B490120087080BDC046E9
:101D8000851D000880B506480078C007002803D0EC
:101D9000FFE7FFF771FFFFE722490020087080BDD1
:101DA000A100002020490868401E08607047C04616
:101DB00080B582B01B480078012819D1FFE7FFF7F2
:101DC000F1FF194801900068FFF782FE0198006852
:101DD00000280CD1FFE7FFF759FF134903200860E3
:101DE0001249134808600F4902200870FFE716E007
:101DF0000C480078022811D1FFE7FFF7D3FF0A480B
:101E00000068002809D1FFE7FFF736FF05490020E9
:101E1000087005493C200860FFE7FFE7FFE702B0D4
:101E200080BDC046B0000020B40000209400002017
:101E3000611D00084900CA020243100000D00420BE
:101E40004A0D01D001221043044A490D914201D1AB
:101E500002210843012800D105207047FF07000038
:101E6000F8B504464F1EC8000838211815461E460E
:101E7000086849683A4606239A4310D02A463346F2
:101E8000FEF750FC3A46D200083AA3181A687F1EA3
:101E90005B68FEF7C7FB06223B469343EED1022F59
:101EA00023D0042F11D0062F2FD12A463346FEF718
:101EB00039FCE36AA26AFEF7B5FB2A463346FEF711
:101EC00031FC636A226AFEF7ADFB2A463346FEF711
:101ED00029FCE369A269FEF7A5FB2A463346FEF713
:101EE00021FC63692269FEF79DFB2A463346FEF713
:101EF00019FCE368A268FEF795FB2A463346FEF715
:101F000011FC63682268FEF78DFBF8BD002210B556
:101F1000134610460149FEF735FD10BD0000F03FA5
:101F200010B5FEF77FFB10BD002210B5134610461A
:101F30001146FEF727FD10BD10B50721024A00200B
:101F40000907FEF743FF10BD01030000034A10B567
:101F500000201107FEF73AFF10BD000001FDFFFF52
:101F6000F0B51FB494B084460C460246179D1698EF
:101F70000090490068006300490840080393002A64
:101F800001D0012600E000269E19FB4BF6185B10DD
:101F90009E422BD36E00009F0196002F00D0012798
:101FA000F719F54EF54BBE199E421FD3009E03460E
:101FB000F34F334309D03B469C4201D1002A04D061
:101FC000039B002A05D0012604E00020394619B001
:101FD000F0BD00269E19EB4B9E4207D8009F019E44
:101FE000002F00D00127F6199E4207D92B466046E4
:101FF0002146169AFFF794FF19B0F0BD0023002C7C
:1020000029DAE14EB04226DAE04EB04201DB02238B
:1020100021E0DB4EB0421EDBDD4E070DBE19142E53
:1020200009DD3427BF1B009EFE400196BE40009F85
:10203000BE420BD00FE0009F002F0CD11427BF1B16
:102040000646FE400196BE40864204D1019BDE0753
:10205000F60F02239B1B0E46164318D1002D16DAED
:10206000002C03D0022B01D0012B06D00220FEF75A
:1020700082FCFFF74BFF19B0F0BD0220FEF77BFC9E
:10208000FFF744FF0122D207514019B0F0BD009E76
:10209000002E61D1BC4EB04220D1BE48844201D155
:1020A000002A08D0B648814209DB002D10DB1698C3
:1020B000294619B0F0BD0020B14919B0F0BD002D7E
:1020C00006DA01222946D2071698514019B0F0BD10
:1020D000B14979440868496819B0F0BDA84FB842C1
:1020E00025D1002D1FDA002904D0B14212D1002AD7
:1020F00009D018E0002A72D1A349E20F0020D207CC
:10210000114319B0F0BD0020E20F0146D207114380
:1021100019B0F0BDB14206DA234600203946FEF779
:1021200031FC19B0F0BD1046214619B0F0BDB142E6
:1021300012DA0126B607B54203D1234610461946E6
:10214000EFE3964EB54207D1261E05DB1046314619
:1021500000F0F0FB19B0F0BD67007F081646002ABA
:1021600040D100290AD0884A914229D1002C0EDDA5
:10217000002D1CDB0020114619B0F0BD022B16D03B
:10218000002C14D0012B12D1002C14DB0FE0002CFA
:1021900028DA002D09DB012B03D000207A4919B081
:1021A000F0BD00207E4919B0F0BD012B03D0002006
:1021B000014619B0F0BD00200121C90719B0F0BDDA
:1021C0006F4A91420ED1002C01DA002B17D0022B5E
:1021D00006D00020C043FEF79AFA19B0F0BD7AE2AB
:1021E0000120F8E7E217521C94461A4307D0002258
:1021F0000692634C62465B1E1A4307D009E0012039
:10220000FEF7B9FBFFF790FE19B0F0BD0022614C5C
:102210000692644A90427DDD634B644A98420ADD2F
:10222000914202DC002D10DB25E05548814202DBA3
:10223000002D0ADC1FE0914202DA002D05DB1AE0D6
:102240004F4B994223DD002D15DD0220FEF793FB55
:10225000FFF772FE05460E4600224B4B21460698BC
:10226000FEF760FA084671004908C00FC007014335
:10227000284619B0F0BD0220FEF77DFBFFF766FE91
:1022800049004908E20FD207114319B0F0BD0022FE
:1022900030463946FEF7D3F9012205460E46D243B1
:1022A000FEF794FD424A434BFEF7D4F92A463346E3
:1022B000FEF738FA0022394BFEF7CCF907462A46DA
:1022C0003346019110461946FEF72CFA3A46019B17
:1022D000FEF728FA0746032007912A4633464007AF
:1022E0003549FEF71FFA01910890344A324B3846BF
:1022F0000799FEF717FA07460291314A314B2846F3
:102300003146FEF70FFA3A46029BFEF798F9074668
:102310000B4600E013E00246079101990898FEF78A
:1023200081F900250E462846019B089AFEF787F999
:102330003A46079BFEF78EF902460B468DE10125D2
:1023400000202D05A94207DA352230463946FEF72E
:102350003DFD06463420C0430A1512180C48084FAC
:10236000101803900803000B0146394304911649E5
:1023700088422BDC00202DE0FFFF1F00FFFF0F0035
:102380000000F03F0000E0FF0000F07F000040434D
:1023900001FCFFFF0000F0BF1A0A00000000E03F50
:1023A0000000F0FF0000E0410000F043FFFFEF3FBE
:1023B000555555555555D53F4715F73FFE822B6569
:1023C00044DF5DF80BAE543E8E980300FE49884210
:1023D00002DA01200F9007E000200F900398401CC4
:1023E00003900498401B0490049909910F98F749B1
:1023F000C00079440D900818436802683046099976
:10240000FEF71DF90191F249089079440D980818DA
:102410004368026830460999FEF704F902460B4604
:1024200000203946FEF7AEFA07910A90019B089A00
:10243000FEF778F91090E7480F46002578440068C9
:1024400004990C9048100121490708430F99890409
:1024500040180121C90441180491DF4979440D98BD
:1024600008184368026804990C98FEF7E8F83246A9
:10247000099BFEF7EFF82A463B46FEF753F9099110
:10248000064628463946049B0C9AFEF74BF9019BF9
:10249000089AFEF7DFF83246099BFEF7D0F8079B53
:1024A0000A9AFEF73FF90F91109A00903B461046AA
:1024B0001946FEF737F906460246C8480B4607910B
:1024C00006217844FFF7CCFC079B3246019104902B
:1024D00010461946FEF726F9019B049AFEF722F9E9
:1024E000019106463B4628461946109AFEF79AF88F
:1024F0000F9B009AFEF716F93246019BFEF792F801
:102500002A463B460191089010461946FEF70AF903
:1025100002460B4607910A900020B149FEF782F867
:10252000019B089AFEF77EF80E462A46AC4B2846D9
:10253000FEF785F8079B0A9AFEF781F8019B089A37
:10254000FEF788F82A46099112903346104639461C
:10255000FEF7E8F8019108903B46109A0999129805
:10256000FEF7E0F80746079133462A460F99009890
:10257000FEF7D8F83A46079BFEF754F807460B4695
:102580000246079101990898FEF74CF80E46284636
:10259000019B089AFEF753F83A46079BFEF75AF854
:1025A0000746072007912A46334640078D49FEF724
:1025B000B9F8029000918C4A8A4B38460799FEF789
:1025C000B1F8074601912A46334688488849FEF704
:1025D000A9F83A46019BFEF725F8864A05467A4453
:1025E0000D981018436802682846FEF71BF80890FB
:1025F00001910398FEF78BF80B910746019B089A0F
:1026000000990298FEF70EF87B4A05467A440D9829
:102610001018436802682846FEF704F83A460B9BF8
:10262000FEF700F800250E463A4628460B9BFEF7BB
:1026300006F8724A07467A440D98101843680268F3
:102640003846FDF7FCFF009B029AFDF7F8FF019B5F
:10265000089AFDF7FFFF02460B46179900200290EB
:102660000F461698FEF75EF8039100903B46029ADB
:1026700017991698FDF7E3FF2A463346FEF752F8FE
:10268000039B009AFDF7CEFF07910C902A46334634
:1026900039460298FEF746F806460F46079B0C9A05
:1026A000FDF7C0FF564A0D46914220DB5242AA1860
:1026B000024310D132463B46FDF7C1FF039108901B
:1026C000504A514B07990C98FDF7ACFF039B089AB1
:1026D00000F054F91ED20220FEF74DF9FFF72CFC52
:1026E00049004908E20FD207114319B0F0BD6A0052
:1026F000464B52089A420DD3454AAA18024300D0CD
:10270000B9E532463B46FDF79AFF079B0C9A00F06D
:1027100035F9F5D96A00002352083E480393110D9C
:102720003D4B09189A4223DD01221205491CCA407B
:1027300052195100490D081838497944096813465F
:102740008C463749C1408B4312030121120B090506
:1027500051181422101AC1400391002D01DA484289
:102760000390624630463946FDF769FF06460F463C
:1027700032463B4607990C98FDF754FF00252A4640
:10278000284B28460B91FDF7CDFF01910890264A72
:10279000264B28460B99FDF7C5FF02910090324663
:1027A0003B4628460B99FDF74AFF079B0C9AFDF71D
:1027B00051FF1F4A1F4BFDF7B5FF029B009AFDF723
:1027C00031FF07460B4637E07AB60B00F2050000F2
:1027D000DA050000B0060000880500005205000080
:1027E0000000084009C7EE3FFD033ADCF5015B1429
:1027F000E02F3EBE26040000E8030000BE030000F8
:1028000000009040FE822B654715973C00CC90401D
:1028100000346F3F01FCFFFF0000E03FB203000007
:10282000FFFF0F00432EE63F396CA80C615C20BE11
:10283000EF39FAFE422EE63F0246079101990898C9
:10284000FDF7F0FE0E460546019B089AFDF7F7FEE0
:102850003A46079BFDF7FEFE07912A4633460C9049
:1028600010461946FDF75EFF074602462F480B4605
:102870000B9105217844FFF7F3FA3A460B9BFDF7DD
:1028800051FF2A463346FDF7E5FE074609912846E3
:102890003146079B0C9AFDF745FF079B0C9AFDF705
:1028A000C1FE01230191089000229B073846099937
:1028B000FDF7C5FE07910A903A4628463146099B26
:1028C000FDF730FF079B0A9AFEF75CF8019B089A18
:1028D000FDF7B5FE2A463346FDF7B1FE0022144B44
:1028E000FDF7B8FE054603980E4600058119091547
:1028F000002911DC28463146039AFEF767FAFFF7F4
:1029000099FA042801D1FFF721FB28463146039AA2
:10291000FEF75CFA054600E031180B462A462146D0
:102920000698FDF7FFFE19B0F0BD0000D0010000D1
:102930000000F03FF8B506460C46FEF7CBFA051E40
:102940000F4600D00120014349000B484908411AB5
:10295000C90F0DD0002E01D0012100E000210C4351
:1029600061004908401AC00F02D10120FEF703F8A8
:1029700028463946F8BD00000000F07F70B50125FB
:102980002D051C000C4310D4EC4206D4AC420AD4F2
:102990008B4200D070BD824270BDEB4217D4E94239
:1029A00015D48B4270BD9B4270BDEC4206D5AC4243
:1029B000F9D5994200D070BD904270BD6D005C00A9
:1029C000EC4204D24C00EC4201D2994270BD0FB4EB
:1029D0000CBC03BC024C30B4FEF72CFA30BC70BD0A
:1029E0001900160400000000000000000000F03F85
:1029F000000000000000F83F0000000000000000A0
:102A00000000004003B8E23F0000000000000000AA
:102A100006D0CF43EBFD4C3E033333333333E33F38
:102A2000FFAB6FDBB66DDB3F4D268F515555D53F64
:102A300001411DA96074D13F65DBC9934A86CD3F32
:102A4000EF4E454A287ECA3F3E5555555555C53F20
:102A500093BDBE166CC166BF2CDE25AF6A56113F12
:102A6000F16BD2C541BDBBBED0A4BE726937663E14
:102A700080807F7E7D7C7B7A7978777676757473BB
:102A8000727171706F6E6E6D6C6C6B6A6A6968687A
:102A9000676666656464636362616160605F5F5E10
:102AA0005E5D5D5C5C5B5B5A5A5959585857575686
:102AB00056555555545453535252525151505050EB
:102AC0004F4F4F4E4E4D4D4D4C4C4C4B4B4B4A4A3D
:102AD0004A49494948484847474747464646454581
:102AE00045444444444343434342424242414141BA
:102AF0000000000000000000182B0008000000206B
:102B0000300000001C010008482B000830000020A5
:102B1000880600003C01000800127A00C000000096
:102B2000F9000000A4000000B000000099000000BF
:102B30009200000082000000F80000008000000009
:082B40009000000000000000FD
:04000005080000C12E
:00000001FF
